{
  "contractName": "Peggy",
  "abi": [
    {
      "inputs": [
        {
          "internalType": "bytes32",
          "name": "_peggyId",
          "type": "bytes32"
        },
        {
          "internalType": "uint256",
          "name": "_powerThreshold",
          "type": "uint256"
        },
        {
          "internalType": "address[]",
          "name": "_validators",
          "type": "address[]"
        },
        {
          "internalType": "uint256[]",
          "name": "_powers",
          "type": "uint256[]"
        },
        {
          "internalType": "uint8[]",
          "name": "_v",
          "type": "uint8[]"
        },
        {
          "internalType": "bytes32[]",
          "name": "_r",
          "type": "bytes32[]"
        },
        {
          "internalType": "bytes32[]",
          "name": "_s",
          "type": "bytes32[]"
        },
        {
          "internalType": "address",
          "name": "_xfiToken",
          "type": "address"
        }
      ],
      "stateMutability": "nonpayable",
      "type": "constructor"
    },
    {
      "anonymous": false,
      "inputs": [
        {
          "indexed": true,
          "internalType": "address",
          "name": "_erc20",
          "type": "address"
        },
        {
          "indexed": true,
          "internalType": "bytes32",
          "name": "_destination",
          "type": "bytes32"
        },
        {
          "indexed": false,
          "internalType": "uint256",
          "name": "_amount",
          "type": "uint256"
        }
      ],
      "name": "Deposit",
      "type": "event"
    },
    {
      "anonymous": false,
      "inputs": [
        {
          "indexed": false,
          "internalType": "address[]",
          "name": "_validators",
          "type": "address[]"
        },
        {
          "indexed": false,
          "internalType": "uint256[]",
          "name": "_powers",
          "type": "uint256[]"
        }
      ],
      "name": "ValsetUpdated",
      "type": "event"
    },
    {
      "anonymous": false,
      "inputs": [
        {
          "indexed": true,
          "internalType": "address",
          "name": "_erc20",
          "type": "address"
        },
        {
          "indexed": true,
          "internalType": "address",
          "name": "_destination",
          "type": "address"
        },
        {
          "indexed": false,
          "internalType": "uint256",
          "name": "_amount",
          "type": "uint256"
        }
      ],
      "name": "Withdraw",
      "type": "event"
    },
    {
      "inputs": [],
      "name": "CHECKPOINT_METHOD_NAME",
      "outputs": [
        {
          "internalType": "bytes32",
          "name": "",
          "type": "bytes32"
        }
      ],
      "stateMutability": "view",
      "type": "function"
    },
    {
      "inputs": [],
      "name": "WITHDRAW_METHOD_NAME",
      "outputs": [
        {
          "internalType": "bytes32",
          "name": "",
          "type": "bytes32"
        }
      ],
      "stateMutability": "view",
      "type": "function"
    },
    {
      "inputs": [],
      "name": "lastCheckpoint",
      "outputs": [
        {
          "internalType": "bytes32",
          "name": "",
          "type": "bytes32"
        }
      ],
      "stateMutability": "view",
      "type": "function"
    },
    {
      "inputs": [],
      "name": "peggyId",
      "outputs": [
        {
          "internalType": "bytes32",
          "name": "",
          "type": "bytes32"
        }
      ],
      "stateMutability": "view",
      "type": "function"
    },
    {
      "inputs": [],
      "name": "powerThreshold",
      "outputs": [
        {
          "internalType": "uint256",
          "name": "",
          "type": "uint256"
        }
      ],
      "stateMutability": "view",
      "type": "function"
    },
    {
      "inputs": [],
      "name": "xfiToken",
      "outputs": [
        {
          "internalType": "contract IXFIToken",
          "name": "",
          "type": "address"
        }
      ],
      "stateMutability": "view",
      "type": "function"
    },
    {
      "inputs": [
        {
          "internalType": "address[]",
          "name": "_validators",
          "type": "address[]"
        },
        {
          "internalType": "uint256[]",
          "name": "_powers",
          "type": "uint256[]"
        },
        {
          "internalType": "uint256",
          "name": "_valsetNonce",
          "type": "uint256"
        },
        {
          "internalType": "bytes32",
          "name": "_peggyId",
          "type": "bytes32"
        }
      ],
      "name": "makeCheckpoint",
      "outputs": [
        {
          "internalType": "bytes32",
          "name": "",
          "type": "bytes32"
        }
      ],
      "stateMutability": "pure",
      "type": "function"
    },
    {
      "inputs": [
        {
          "internalType": "address[]",
          "name": "_currentValidators",
          "type": "address[]"
        },
        {
          "internalType": "uint256[]",
          "name": "_currentPowers",
          "type": "uint256[]"
        },
        {
          "internalType": "uint8[]",
          "name": "_v",
          "type": "uint8[]"
        },
        {
          "internalType": "bytes32[]",
          "name": "_r",
          "type": "bytes32[]"
        },
        {
          "internalType": "bytes32[]",
          "name": "_s",
          "type": "bytes32[]"
        },
        {
          "internalType": "bytes32",
          "name": "_theHash",
          "type": "bytes32"
        },
        {
          "internalType": "uint256",
          "name": "_powerThreshold",
          "type": "uint256"
        }
      ],
      "name": "checkValidatorSignatures",
      "outputs": [],
      "stateMutability": "pure",
      "type": "function"
    },
    {
      "inputs": [
        {
          "internalType": "address",
          "name": "_erc20",
          "type": "address"
        },
        {
          "internalType": "bytes32",
          "name": "_destination",
          "type": "bytes32"
        },
        {
          "internalType": "uint256",
          "name": "_amount",
          "type": "uint256"
        }
      ],
      "name": "deposit",
      "outputs": [],
      "stateMutability": "nonpayable",
      "type": "function"
    },
    {
      "inputs": [
        {
          "internalType": "address[]",
          "name": "_newValidators",
          "type": "address[]"
        },
        {
          "internalType": "uint256[]",
          "name": "_newPowers",
          "type": "uint256[]"
        },
        {
          "internalType": "uint256",
          "name": "_newValsetNonce",
          "type": "uint256"
        },
        {
          "internalType": "address[]",
          "name": "_validators",
          "type": "address[]"
        },
        {
          "internalType": "uint256[]",
          "name": "_powers",
          "type": "uint256[]"
        },
        {
          "internalType": "uint256",
          "name": "_valsetNonce",
          "type": "uint256"
        },
        {
          "internalType": "uint8[]",
          "name": "_v",
          "type": "uint8[]"
        },
        {
          "internalType": "bytes32[]",
          "name": "_r",
          "type": "bytes32[]"
        },
        {
          "internalType": "bytes32[]",
          "name": "_s",
          "type": "bytes32[]"
        }
      ],
      "name": "updateValset",
      "outputs": [],
      "stateMutability": "nonpayable",
      "type": "function"
    },
    {
      "inputs": [
        {
          "internalType": "bytes32",
          "name": "_id",
          "type": "bytes32"
        },
        {
          "internalType": "address",
          "name": "_erc20",
          "type": "address"
        },
        {
          "internalType": "address",
          "name": "_destination",
          "type": "address"
        },
        {
          "internalType": "uint256",
          "name": "_amount",
          "type": "uint256"
        },
        {
          "internalType": "address[]",
          "name": "_validators",
          "type": "address[]"
        },
        {
          "internalType": "uint256",
          "name": "_valsetNonce",
          "type": "uint256"
        },
        {
          "internalType": "uint256[]",
          "name": "_powers",
          "type": "uint256[]"
        },
        {
          "internalType": "uint8[]",
          "name": "_v",
          "type": "uint8[]"
        },
        {
          "internalType": "bytes32[]",
          "name": "_r",
          "type": "bytes32[]"
        },
        {
          "internalType": "bytes32[]",
          "name": "_s",
          "type": "bytes32[]"
        }
      ],
      "name": "withdraw",
      "outputs": [],
      "stateMutability": "nonpayable",
      "type": "function"
    }
  ],
  "bytecode": "0x60806040523480156200001157600080fd5b50604051620029d4380380620029d483398181016040526101008110156200003857600080fd5b810190808051906020019092919080519060200190929190805160405193929190846401000000008211156200006d57600080fd5b838201915060208201858111156200008457600080fd5b8251866020820283011164010000000082111715620000a257600080fd5b8083526020830192505050908051906020019060200280838360005b83811015620000db578082015181840152602081019050620000be565b50505050905001604052602001805160405193929190846401000000008211156200010557600080fd5b838201915060208201858111156200011c57600080fd5b82518660208202830111640100000000821117156200013a57600080fd5b8083526020830192505050908051906020019060200280838360005b838110156200017357808201518184015260208101905062000156565b50505050905001604052602001805160405193929190846401000000008211156200019d57600080fd5b83820191506020820185811115620001b457600080fd5b8251866020820283011164010000000082111715620001d257600080fd5b8083526020830192505050908051906020019060200280838360005b838110156200020b578082015181840152602081019050620001ee565b50505050905001604052602001805160405193929190846401000000008211156200023557600080fd5b838201915060208201858111156200024c57600080fd5b82518660208202830111640100000000821117156200026a57600080fd5b8083526020830192505050908051906020019060200280838360005b83811015620002a357808201518184015260208101905062000286565b5050505090500160405260200180516040519392919084640100000000821115620002cd57600080fd5b83820191506020820185811115620002e457600080fd5b82518660208202830111640100000000821117156200030257600080fd5b8083526020830192505050908051906020019060200280838360005b838110156200033b5780820151818401526020810190506200031e565b50505050905001604052602001805190602001909291905050508451865114801562000368575083518651145b801562000376575082518651145b801562000384575081518651145b620003db576040517f08c379a0000000000000000000000000000000000000000000000000000000008152600401808060200182810382526026815260200180620029ae6026913960400191505060405180910390fd5b60008090506000620003f68888848d620004a360201b60201c565b90506200043d8888888888868f6040516020018083815260200182815260200192505050604051602081830303815290604052805190602001208f620005b660201b60201c565b80600281905550896000819055508860018190555082600460006101000a81548173ffffffffffffffffffffffffffffffffffffffff021916908373ffffffffffffffffffffffffffffffffffffffff16021790555050505050505050505050620008d7565b6000808260405180807f636865636b706f696e7400000000000000000000000000000000000000000000815250600a0190506040518091039020858888604051602001808681526020018581526020018481526020018060200180602001838103835285818151815260200191508051906020019060200280838360005b838110156200053e57808201518184015260208101905062000521565b50505050905001838103825284818151815260200191508051906020019060200280838360005b838110156200058257808201518184015260208101905062000565565b5050505090500197505050505050505060405160208183030381529060405280519060200120905080915050949350505050565b600080905060008090505b8851811015620006f3576000878281518110620005da57fe5b602002602001015160ff1614620006d05762000650898281518110620005fc57fe5b6020026020010151858984815181106200061257fe5b60200260200101518985815181106200062757fe5b60200260200101518986815181106200063c57fe5b60200260200101516200075860201b60201c565b620006a7576040517f08c379a0000000000000000000000000000000000000000000000000000000008152600401808060200182810382526029815260200180620029436029913960400191505060405180910390fd5b878181518110620006b457fe5b60200260200101518201915082821115620006cf57620006f3565b5b620006eb6001826200084e60201b62001bd71790919060201c565b9050620005c1565b508181116200074e576040517f08c379a00000000000000000000000000000000000000000000000000000000081526004018080602001828103825260428152602001806200296c6042913960600191505060405180910390fd5b5050505050505050565b6000808560405160200180807f19457468657265756d205369676e6564204d6573736167653a0a333200000000815250601c0182815260200191505060405160208183030381529060405280519060200120905060018186868660405160008152602001604052604051808581526020018460ff1660ff1681526020018381526020018281526020019450505050506020604051602081039080840390855afa1580156200080a573d6000803e3d6000fd5b5050506020604051035173ffffffffffffffffffffffffffffffffffffffff168773ffffffffffffffffffffffffffffffffffffffff161491505095945050505050565b600080828401905083811015620008cd576040517f08c379a000000000000000000000000000000000000000000000000000000000815260040180806020018281038252601b8152602001807f536166654d6174683a206164646974696f6e206f766572666c6f77000000000081525060200191505060405180910390fd5b8091505092915050565b61205c80620008e76000396000f3fe608060405234801561001057600080fd5b50600436106100a95760003560e01c8063d32e81a511610071578063d32e81a5146105e3578063e3cb9f6214610601578063e724280a14610a46578063e8bd2fa814610a90578063ea10bb2014610aae578063eb2243f814610dca576100a9565b80634eb6ce70146100ae578063556fd4ba146100cc57806371cbf381146100ea5780639fc7a04d1461025e578063ba95ec27146105c5575b600080fd5b6100b6610e22565b6040518082815260200191505060405180910390f35b6100d4610e5b565b6040518082815260200191505060405180910390f35b6102486004803603608081101561010057600080fd5b810190808035906020019064010000000081111561011d57600080fd5b82018360208201111561012f57600080fd5b8035906020019184602083028401116401000000008311171561015157600080fd5b919080806020026020016040519081016040528093929190818152602001838360200280828437600081840152601f19601f820116905080830192505050505050509192919290803590602001906401000000008111156101b157600080fd5b8201836020820111156101c357600080fd5b803590602001918460208302840111640100000000831117156101e557600080fd5b919080806020026020016040519081016040528093929190818152602001838360200280828437600081840152601f19601f8201169050808301925050505050505091929192908035906020019092919080359060200190929190505050610e61565b6040518082815260200191505060405180910390f35b6105c3600480360361014081101561027557600080fd5b8101908080359060200190929190803573ffffffffffffffffffffffffffffffffffffffff169060200190929190803573ffffffffffffffffffffffffffffffffffffffff16906020019092919080359060200190929190803590602001906401000000008111156102e657600080fd5b8201836020820111156102f857600080fd5b8035906020019184602083028401116401000000008311171561031a57600080fd5b919080806020026020016040519081016040528093929190818152602001838360200280828437600081840152601f19601f820116905080830192505050505050509192919290803590602001909291908035906020019064010000000081111561038457600080fd5b82018360208201111561039657600080fd5b803590602001918460208302840111640100000000831117156103b857600080fd5b919080806020026020016040519081016040528093929190818152602001838360200280828437600081840152601f19601f8201169050808301925050505050505091929192908035906020019064010000000081111561041857600080fd5b82018360208201111561042a57600080fd5b8035906020019184602083028401116401000000008311171561044c57600080fd5b919080806020026020016040519081016040528093929190818152602001838360200280828437600081840152601f19601f820116905080830192505050505050509192919290803590602001906401000000008111156104ac57600080fd5b8201836020820111156104be57600080fd5b803590602001918460208302840111640100000000831117156104e057600080fd5b919080806020026020016040519081016040528093929190818152602001838360200280828437600081840152601f19601f8201169050808301925050505050505091929192908035906020019064010000000081111561054057600080fd5b82018360208201111561055257600080fd5b8035906020019184602083028401116401000000008311171561057457600080fd5b919080806020026020016040519081016040528093929190818152602001838360200280828437600081840152601f19601f820116905080830192505050505050509192919290505050610f70565b005b6105cd61159b565b6040518082815260200191505060405180910390f35b6105eb6115a1565b6040518082815260200191505060405180910390f35b610a44600480360361012081101561061857600080fd5b810190808035906020019064010000000081111561063557600080fd5b82018360208201111561064757600080fd5b8035906020019184602083028401116401000000008311171561066957600080fd5b919080806020026020016040519081016040528093929190818152602001838360200280828437600081840152601f19601f820116905080830192505050505050509192919290803590602001906401000000008111156106c957600080fd5b8201836020820111156106db57600080fd5b803590602001918460208302840111640100000000831117156106fd57600080fd5b919080806020026020016040519081016040528093929190818152602001838360200280828437600081840152601f19601f820116905080830192505050505050509192919290803590602001909291908035906020019064010000000081111561076757600080fd5b82018360208201111561077957600080fd5b8035906020019184602083028401116401000000008311171561079b57600080fd5b919080806020026020016040519081016040528093929190818152602001838360200280828437600081840152601f19601f820116905080830192505050505050509192919290803590602001906401000000008111156107fb57600080fd5b82018360208201111561080d57600080fd5b8035906020019184602083028401116401000000008311171561082f57600080fd5b919080806020026020016040519081016040528093929190818152602001838360200280828437600081840152601f19601f820116905080830192505050505050509192919290803590602001909291908035906020019064010000000081111561089957600080fd5b8201836020820111156108ab57600080fd5b803590602001918460208302840111640100000000831117156108cd57600080fd5b919080806020026020016040519081016040528093929190818152602001838360200280828437600081840152601f19601f8201169050808301925050505050505091929192908035906020019064010000000081111561092d57600080fd5b82018360208201111561093f57600080fd5b8035906020019184602083028401116401000000008311171561096157600080fd5b919080806020026020016040519081016040528093929190818152602001838360200280828437600081840152601f19601f820116905080830192505050505050509192919290803590602001906401000000008111156109c157600080fd5b8201836020820111156109d357600080fd5b803590602001918460208302840111640100000000831117156109f557600080fd5b919080806020026020016040519081016040528093929190818152602001838360200280828437600081840152601f19601f8201169050808301925050505050505091929192905050506115a7565b005b610a4e611838565b604051808273ffffffffffffffffffffffffffffffffffffffff1673ffffffffffffffffffffffffffffffffffffffff16815260200191505060405180910390f35b610a9861185e565b6040518082815260200191505060405180910390f35b610dc8600480360360e0811015610ac457600080fd5b8101908080359060200190640100000000811115610ae157600080fd5b820183602082011115610af357600080fd5b80359060200191846020830284011164010000000083111715610b1557600080fd5b919080806020026020016040519081016040528093929190818152602001838360200280828437600081840152601f19601f82011690508083019250505050505050919291929080359060200190640100000000811115610b7557600080fd5b820183602082011115610b8757600080fd5b80359060200191846020830284011164010000000083111715610ba957600080fd5b919080806020026020016040519081016040528093929190818152602001838360200280828437600081840152601f19601f82011690508083019250505050505050919291929080359060200190640100000000811115610c0957600080fd5b820183602082011115610c1b57600080fd5b80359060200191846020830284011164010000000083111715610c3d57600080fd5b919080806020026020016040519081016040528093929190818152602001838360200280828437600081840152601f19601f82011690508083019250505050505050919291929080359060200190640100000000811115610c9d57600080fd5b820183602082011115610caf57600080fd5b80359060200191846020830284011164010000000083111715610cd157600080fd5b919080806020026020016040519081016040528093929190818152602001838360200280828437600081840152601f19601f82011690508083019250505050505050919291929080359060200190640100000000811115610d3157600080fd5b820183602082011115610d4357600080fd5b80359060200191846020830284011164010000000083111715610d6557600080fd5b919080806020026020016040519081016040528093929190818152602001838360200280828437600081840152601f19601f8201169050808301925050505050505091929192908035906020019092919080359060200190929190505050611897565b005b610e2060048036036060811015610de057600080fd5b81019080803573ffffffffffffffffffffffffffffffffffffffff1690602001909291908035906020019092919080359060200190929190505050611a1b565b005b60405180807f77697468647261770000000000000000000000000000000000000000000000008152506008019050604051809103902081565b60005481565b6000808260405180807f636865636b706f696e7400000000000000000000000000000000000000000000815250600a0190506040518091039020858888604051602001808681526020018581526020018481526020018060200180602001838103835285818151815260200191508051906020019060200280838360005b83811015610efa578082015181840152602081019050610edf565b50505050905001838103825284818151815260200191508051906020019060200280838360005b83811015610f3c578082015181840152602081019050610f21565b5050505090500197505050505050505060405160208183030381529060405280519060200120905080915050949350505050565b83518651148015610f82575082518651145b8015610f8f575081518651145b8015610f9c575080518651145b610ff1576040517f08c379a0000000000000000000000000000000000000000000000000000000008152600401808060200182810382526026815260200180611eec6026913960400191505060405180910390fd5b600360008b815260200190815260200160002060009054906101000a900460ff1615611068576040517f08c379a0000000000000000000000000000000000000000000000000000000008152600401808060200182810382526027815260200180611fc26027913960400191505060405180910390fd5b600254611079878688600054610e61565b146110cf576040517f08c379a0000000000000000000000000000000000000000000000000000000008152600401808060200182810382526045815260200180611f126045913960600191505060405180910390fd5b6000805460405180807f7769746864726177000000000000000000000000000000000000000000000000815250600801905060405180910390208c8a8c604051602001808681526020018581526020018481526020018381526020018273ffffffffffffffffffffffffffffffffffffffff1673ffffffffffffffffffffffffffffffffffffffff1681526020019550505050505060405160208183030381529060405280519060200120905061118d878686868686600154611897565b600460009054906101000a900473ffffffffffffffffffffffffffffffffffffffff1673ffffffffffffffffffffffffffffffffffffffff168a73ffffffffffffffffffffffffffffffffffffffff1614156113c9576000600460009054906101000a900473ffffffffffffffffffffffffffffffffffffffff1673ffffffffffffffffffffffffffffffffffffffff166370a08231306040518263ffffffff1660e01b8152600401808273ffffffffffffffffffffffffffffffffffffffff1673ffffffffffffffffffffffffffffffffffffffff16815260200191505060206040518083038186803b15801561128457600080fd5b505afa158015611298573d6000803e3d6000fd5b505050506040513d60208110156112ae57600080fd5b81019080805190602001909291905050509050888110156113c75760006112de828b611c5f90919063ffffffff16565b9050600460009054906101000a900473ffffffffffffffffffffffffffffffffffffffff1673ffffffffffffffffffffffffffffffffffffffff16631406de4830836040518363ffffffff1660e01b8152600401808373ffffffffffffffffffffffffffffffffffffffff1673ffffffffffffffffffffffffffffffffffffffff16815260200182815260200192505050602060405180830381600087803b15801561138957600080fd5b505af115801561139d573d6000803e3d6000fd5b505050506040513d60208110156113b357600080fd5b810190808051906020019092919050505050505b505b8973ffffffffffffffffffffffffffffffffffffffff1663a9059cbb8a8a6040518363ffffffff1660e01b8152600401808373ffffffffffffffffffffffffffffffffffffffff1673ffffffffffffffffffffffffffffffffffffffff16815260200182815260200192505050602060405180830381600087803b15801561145057600080fd5b505af1158015611464573d6000803e3d6000fd5b505050506040513d602081101561147a57600080fd5b81019080805190602001909291905050506114fd576040517f08c379a000000000000000000000000000000000000000000000000000000000815260040180806020018281038252601c8152602001807f50656767793a204552433230207472616e73666572206661696c65640000000081525060200191505060405180910390fd5b6001600360008d815260200190815260200160002060006101000a81548160ff0219169083151502179055508873ffffffffffffffffffffffffffffffffffffffff168a73ffffffffffffffffffffffffffffffffffffffff167f9b1bfa7fa9ee420a16e124f794c35ac9f90472acc99140eb2f6447c714cad8eb8a6040518082815260200191505060405180910390a35050505050505050505050565b60015481565b60025481565b8751895114611601576040517f08c379a0000000000000000000000000000000000000000000000000000000008152600401808060200182810382526022815260200180611e5f6022913960400191505060405180910390fd5b84518651148015611613575082518651145b8015611620575081518651145b801561162d575080518651145b611682576040517f08c379a0000000000000000000000000000000000000000000000000000000008152600401808060200182810382526026815260200180611f576026913960400191505060405180910390fd5b600254611693878787600054610e61565b146116e9576040517f08c379a0000000000000000000000000000000000000000000000000000000008152600401808060200182810382526045815260200180611f7d6045913960600191505060405180910390fd5b838711611741576040517f08c379a000000000000000000000000000000000000000000000000000000000815260040180806020018281038252603e815260200180611fe9603e913960400191505060405180910390fd5b60006117518a8a8a600054610e61565b9050611764878786868686600154611897565b806002819055507fb5d3495c2ecf4bc11dddbce9db1ad472d113b0f45a011e258841619891b69aa28a8a604051808060200180602001838103835285818151815260200191508051906020019060200280838360005b838110156117d55780820151818401526020810190506117ba565b50505050905001838103825284818151815260200191508051906020019060200280838360005b838110156118175780820151818401526020810190506117fc565b5050505090500194505050505060405180910390a150505050505050505050565b600460009054906101000a900473ffffffffffffffffffffffffffffffffffffffff1681565b60405180807f636865636b706f696e7400000000000000000000000000000000000000000000815250600a019050604051809103902081565b600080905060008090505b88518110156119b85760008782815181106118b957fe5b602002602001015160ff161461199d576119228982815181106118d857fe5b6020026020010151858984815181106118ed57fe5b602002602001015189858151811061190157fe5b602002602001015189868151811061191557fe5b6020026020010151611ca9565b611977576040517f08c379a0000000000000000000000000000000000000000000000000000000008152600401808060200182810382526029815260200180611e816029913960400191505060405180910390fd5b87818151811061198357fe5b6020026020010151820191508282111561199c576119b8565b5b6119b1600182611bd790919063ffffffff16565b90506118a2565b50818111611a11576040517f08c379a0000000000000000000000000000000000000000000000000000000008152600401808060200182810382526042815260200180611eaa6042913960600191505060405180910390fd5b5050505050505050565b8273ffffffffffffffffffffffffffffffffffffffff166323b872dd3330846040518463ffffffff1660e01b8152600401808473ffffffffffffffffffffffffffffffffffffffff1673ffffffffffffffffffffffffffffffffffffffff1681526020018373ffffffffffffffffffffffffffffffffffffffff1673ffffffffffffffffffffffffffffffffffffffff1681526020018281526020019350505050602060405180830381600087803b158015611ad657600080fd5b505af1158015611aea573d6000803e3d6000fd5b505050506040513d6020811015611b0057600080fd5b8101908080519060200190929190505050611b83576040517f08c379a000000000000000000000000000000000000000000000000000000000815260040180806020018281038252601c8152602001807f50656767793a204552433230207472616e73666572206661696c65640000000081525060200191505060405180910390fd5b818373ffffffffffffffffffffffffffffffffffffffff167f19dacbf83c5de6658e14cbf7bcae5c15eca2eedecf1c66fbca928e4d351bea0f836040518082815260200191505060405180910390a3505050565b600080828401905083811015611c55576040517f08c379a000000000000000000000000000000000000000000000000000000000815260040180806020018281038252601b8152602001807f536166654d6174683a206164646974696f6e206f766572666c6f77000000000081525060200191505060405180910390fd5b8091505092915050565b6000611ca183836040518060400160405280601e81526020017f536166654d6174683a207375627472616374696f6e206f766572666c6f770000815250611d9e565b905092915050565b6000808560405160200180807f19457468657265756d205369676e6564204d6573736167653a0a333200000000815250601c0182815260200191505060405160208183030381529060405280519060200120905060018186868660405160008152602001604052604051808581526020018460ff1660ff1681526020018381526020018281526020019450505050506020604051602081039080840390855afa158015611d5a573d6000803e3d6000fd5b5050506020604051035173ffffffffffffffffffffffffffffffffffffffff168773ffffffffffffffffffffffffffffffffffffffff161491505095945050505050565b6000838311158290611e4b576040517f08c379a00000000000000000000000000000000000000000000000000000000081526004018080602001828103825283818151815260200191508051906020019080838360005b83811015611e10578082015181840152602081019050611df5565b50505050905090810190601f168015611e3d5780820380516001836020036101000a031916815260200191505b509250505060405180910390fd5b506000838503905080915050939250505056fe50656767793a204d616c666f726d6564206e65772076616c696461746f722073657450656767793a2076616c696461746f72207369676e617475726520646f6573206e6f74206d6174636850656767793a207375626d69747465642076616c696461746f7220736574207369676e61747572657320646f206e6f74206861766520656e6f75676820706f77657250656767793a206d616c666f726d65642063757272656e742076616c696461746f722073657450656767793a20737570706c6965642063757272656e742076616c696461746f727320616e6420706f7765727320646f206e6f74206d6174636820636865636b706f696e7450656767793a204d616c666f726d65642063757272656e742076616c696461746f722073657450656767793a20537570706c6965642063757272656e742076616c696461746f727320616e6420706f7765727320646f206e6f74206d6174636820636865636b706f696e7450656767793a207472616e73616374696f6e20696420616c72656164792070726f63657373656450656767793a204e65772076616c736574206e6f6e6365206d7573742062652067726561746572207468616e207468652063757272656e74206e6f6e6365a2646970667358221220e6b5d1754356861651afab94c343fb2394e54a5ce6fadfefecc7616e3b3b559e64736f6c634300060b003350656767793a2076616c696461746f72207369676e617475726520646f6573206e6f74206d6174636850656767793a207375626d69747465642076616c696461746f7220736574207369676e61747572657320646f206e6f74206861766520656e6f75676820706f77657250656767793a206d616c666f726d65642063757272656e742076616c696461746f7220736574",
  "immutableReferences": {},
  "source": "// SPDX-License-Identifier: MIT\n\npragma solidity ^0.6.6;\n\nimport '@openzeppelin/contracts/math/SafeMath.sol';\nimport '@openzeppelin/contracts/token/ERC20/IERC20.sol';\nimport './interfaces/IXFIToken.sol';\n\n/*\n    TODO list:\n    - QUESTION let's remove powerThreshold? and use totalPower / 2 + 1?\n*/\n\n/**\n * Dfinance PegZone.\n */\ncontract Peggy {\n    using SafeMath for uint256;\n\n    event ValsetUpdated(address[] _validators, uint256[] _powers);\n    event Deposit(address indexed _erc20, bytes32 indexed _destination, uint256 _amount);\n    event Withdraw(address indexed _erc20, address indexed _destination, uint256 _amount);\n\n    // Current PegZone ID.\n    bytes32 public peggyId;\n\n    // Amount of power to confirm operation.\n    uint256 public powerThreshold;\n\n    // Last checkpoint.\n    bytes32 public lastCheckpoint;\n\n    // Checkpoint method name hash (\"checkpoint\").\n    bytes32 constant public CHECKPOINT_METHOD_NAME = keccak256(\"checkpoint\");\n\n    // Withdraw method name hash (\"withdraw\").\n    bytes32 constant public WITHDRAW_METHOD_NAME = keccak256(\"withdraw\");\n\n    // List of processed withdraws.\n    mapping(bytes32 => bool) withdrawIds;\n\n    // XFI token.\n    IXFIToken public xfiToken;\n\n    /**\n     * Utility function to verify geth style signatures.\n     */\n    function verifySig(\n        address _signer,\n        bytes32 _theHash,\n        uint8 _v,\n        bytes32 _r,\n        bytes32 _s\n    ) private pure returns (bool) {\n        bytes32 messageDigest = keccak256(\n            abi.encodePacked(\"\\x19Ethereum Signed Message:\\n32\", _theHash)\n        );\n\n        return _signer == ecrecover(messageDigest, _v, _r, _s);\n    }\n\n    /**\n     * Validators checkpoint.\n     */\n    function makeCheckpoint(\n        address[] memory _validators,\n        uint256[] memory _powers,\n        uint256 _valsetNonce,\n        bytes32 _peggyId\n    ) public pure returns (bytes32) {\n        bytes32 checkpoint = keccak256(\n            abi.encode(_peggyId, CHECKPOINT_METHOD_NAME, _valsetNonce, _validators, _powers)\n        );\n\n        return checkpoint;\n    }\n\n    /**\n     * Check validator signatures.\n     */\n    function checkValidatorSignatures(\n        // The current validator set and their powers\n        address[] memory _currentValidators,\n        uint256[] memory _currentPowers,\n        // The current validator's signatures\n        uint8[] memory _v,\n        bytes32[] memory _r,\n        bytes32[] memory _s,\n        // This is what we are checking they have signed\n        bytes32 _theHash,\n        uint256 _powerThreshold\n    ) public pure {\n        uint256 cumulativePower = 0;\n\n        for (uint256 k = 0; k < _currentValidators.length; k = k.add(1)) {\n            // If v is set to 0, this signifies that it was not possible to get a signature from this validator and we skip evaluation\n            // (In a valid signature, it is either 27 or 28)\n            if (_v[k] != 0) {\n                // Check that the current validator has signed off on the hash\n                require(\n                    verifySig(_currentValidators[k], _theHash, _v[k], _r[k], _s[k]),\n                    'Peggy: validator signature does not match'\n                );\n\n                // Sum up cumulative power\n                cumulativePower = cumulativePower + _currentPowers[k];\n\n                // Break early to avoid wasting gas\n                if (cumulativePower > _powerThreshold) {\n                    break;\n                }\n            }\n        }\n\n        // Check that there was enough power\n        require(\n            cumulativePower > _powerThreshold,\n            'Peggy: submitted validator set signatures do not have enough power'\n        );\n    }\n\n    /**\n     * !!!IMPORTANT!!! NOTE: Only whitelisted ERC20 will move to dfinance network.\n     *\n     * Deposit ERC20 into Peggy.\n     * Whitelist is stored on Dfinance part.\n     * Validators use transaction ID as unique ID for processing deposit.\n     *\n     * Emits a {Deposit} event.\n     */\n    function deposit(address _erc20, bytes32 _destination, uint256 _amount) public {\n        require(IERC20(_erc20).transferFrom(msg.sender, address(this), _amount), 'Peggy: ERC20 transfer failed');\n\n        emit Deposit(_erc20, _destination, _amount);\n    }\n\n    /**\n     * This updates the valset by checking that the validators in the current valset have signed off on the\n     * new valset. The signatures supplied are the signatures of the current valset over the checkpoint hash\n     * generated from the new valset.\n     *\n     * Emits a {ValsetUpdated} event.\n     */\n    function updateValset(\n        // The new version of the validator set\n        address[] memory _newValidators,\n        uint256[] memory _newPowers,\n        uint256 _newValsetNonce,\n        // The current validators that approve the change\n        address[] memory _validators,\n        uint256[] memory _powers,\n        uint256 _valsetNonce,\n        // These are arrays of the parts of the current validator's signatures\n        uint8[] memory _v,\n        bytes32[] memory _r,\n        bytes32[] memory _s\n    ) public {\n        // CHECKS\n\n        // Check that new validators and powers set is well-formed\n        require(_newValidators.length == _newPowers.length, 'Peggy: Malformed new validator set');\n\n        // Check that current validators, powers, and signatures (v,r,s) set is well-formed\n        require(\n            _validators.length == _powers.length &&\n            _validators.length == _v.length &&\n            _validators.length == _r.length &&\n            _validators.length == _s.length,\n            'Peggy: Malformed current validator set'\n        );\n\n        // Check that the supplied current validator set matches the saved checkpoint\n        require(\n            makeCheckpoint(\n                _validators,\n                _powers,\n                _valsetNonce,\n                peggyId\n            ) == lastCheckpoint,\n            'Peggy: Supplied current validators and powers do not match checkpoint'\n        );\n\n        // Check that the valset nonce is greater than the old one\n        require(\n            _newValsetNonce > _valsetNonce,\n            'Peggy: New valset nonce must be greater than the current nonce'\n        );\n\n        // Check that enough current validators have signed off on the new validator set\n        bytes32 newCheckpoint = makeCheckpoint(\n            _newValidators,\n            _newPowers,\n            _newValsetNonce,\n            peggyId\n        );\n\n        checkValidatorSignatures(\n            _validators,\n            _powers,\n            _v,\n            _r,\n            _s,\n            newCheckpoint,\n            powerThreshold\n        );\n\n        /* TODO: check that new powers enough to approve anything. */\n\n        // Stored to be used next time to validate that the valset\n        // supplied by the caller is correct.\n        lastCheckpoint = newCheckpoint;\n\n        emit ValsetUpdated(_newValidators, _newPowers);\n    }\n\n    /**\n     * Withdraw function.\n     * Accepting id, erc20 address, destination.\n     * Also requires validators, powers.\n     * Anyone can submit.\n     *\n     * Emits a {Withdraw} event.\n     */\n    function withdraw(\n        bytes32 _id,\n        address _erc20,\n        address _destination,\n        uint256 _amount,\n        address[] memory _validators,\n        uint256 _valsetNonce,\n        uint256[] memory _powers,\n        uint8[] memory _v,\n        bytes32[] memory _r,\n        bytes32[] memory _s\n    ) public {\n        require(\n            _validators.length == _powers.length &&\n            _validators.length == _v.length &&\n            _validators.length == _r.length &&\n            _validators.length == _s.length,\n            'Peggy: malformed current validator set'\n        );\n\n        require(!withdrawIds[_id], 'Peggy: transaction id already processed');\n\n        // Check that the supplied current validator set matches the saved checkpoint.\n        require(\n            makeCheckpoint(\n                _validators,\n                _powers,\n                _valsetNonce,\n                peggyId\n            ) == lastCheckpoint,\n            'Peggy: supplied current validators and powers do not match checkpoint'\n        );\n\n        // Get hash of the transaction.\n        bytes32 confirmationHash = keccak256(\n            abi.encode(peggyId, WITHDRAW_METHOD_NAME, _id, _amount, _destination)\n        );\n\n        // Check that enough current validators have signed off on the transaction batch\n        checkValidatorSignatures(\n            _validators,\n            _powers,\n            _v,\n            _r,\n            _s,\n            confirmationHash,\n            powerThreshold\n        );\n\n        // Check whether ERC20 token is XFI.\n        if (_erc20 == address(xfiToken)) {\n            uint256 balance = xfiToken.balanceOf(address(this));\n\n            if (balance < _amount) {\n                uint256 diff = _amount.sub(balance);\n\n                // If the balance of this contract doesn't have enough XFI for\n                // the operation - mint the difference.\n                xfiToken.mintWithoutVesting(address(this), diff);\n            }\n        }\n\n        require(IERC20(_erc20).transfer(_destination, _amount), 'Peggy: ERC20 transfer failed');\n\n        withdrawIds[_id] = true;\n\n        emit Withdraw(_erc20, _destination, _amount);\n    }\n\n    /**\n     * Constructor.\n     */\n    constructor(\n        bytes32 _peggyId,\n        uint256 _powerThreshold,\n        address[] memory _validators,\n        uint256[] memory _powers,\n        uint8[] memory _v,\n        bytes32[] memory _r,\n        bytes32[] memory _s,\n        address _xfiToken\n    ) public {\n        require(\n            _validators.length == _powers.length &&\n            _validators.length == _v.length &&\n            _validators.length == _r.length &&\n            _validators.length == _s.length,\n            'Peggy: malformed current validator set'\n        );\n\n        uint256 nonce = 0;\n        bytes32 newCheckpoint = makeCheckpoint(_validators, _powers, nonce, _peggyId);\n\n        checkValidatorSignatures(\n            _validators,\n            _powers,\n            _v,\n            _r,\n            _s,\n            keccak256(abi.encode(newCheckpoint, _powerThreshold)),\n            _powerThreshold\n        );\n\n        lastCheckpoint = newCheckpoint;\n        peggyId = _peggyId;\n        powerThreshold = _powerThreshold;\n        xfiToken = IXFIToken(_xfiToken);\n    }\n}\n",
  "sourcePath": "/Users/romanfrolov/Desktop/All/Contracts/Dfinance/peggy/contracts/Peggy.sol",
  "compiler": {
    "name": "solc",
    "version": "0.6.11+commit.5ef660b1.Emscripten.clang"
  },
  "schemaVersion": "3.2.1",
  "updatedAt": "2020-10-15T16:51:59.683Z",
  "devdoc": {
    "kind": "dev",
    "methods": {},
    "version": 1
  },
  "userdoc": {
    "kind": "user",
    "methods": {
      "checkValidatorSignatures(address[],uint256[],uint8[],bytes32[],bytes32[],bytes32,uint256)": {
        "notice": "Check validator signatures."
      },
      "constructor": "Constructor.",
      "deposit(address,bytes32,uint256)": {
        "notice": "!!!IMPORTANT!!! NOTE: Only whitelisted ERC20 will move to dfinance network. Deposit ERC20 into Peggy. Whitelist is stored on Dfinance part. Validators use transaction ID as unique ID for processing deposit. Emits a {Deposit} event."
      },
      "makeCheckpoint(address[],uint256[],uint256,bytes32)": {
        "notice": "Validators checkpoint."
      },
      "updateValset(address[],uint256[],uint256,address[],uint256[],uint256,uint8[],bytes32[],bytes32[])": {
        "notice": "This updates the valset by checking that the validators in the current valset have signed off on the new valset. The signatures supplied are the signatures of the current valset over the checkpoint hash generated from the new valset. Emits a {ValsetUpdated} event."
      },
      "withdraw(bytes32,address,address,uint256,address[],uint256,uint256[],uint8[],bytes32[],bytes32[])": {
        "notice": "Withdraw function. Accepting id, erc20 address, destination. Also requires validators, powers. Anyone can submit. Emits a {Withdraw} event."
      }
    },
    "notice": "Dfinance PegZone.",
    "version": 1
  }
}