{
  "contractName": "Peggy",
  "abi": [
    {
      "inputs": [
        {
          "internalType": "bytes32",
          "name": "_peggyId",
          "type": "bytes32"
        },
        {
          "internalType": "uint256",
          "name": "_powerThreshold",
          "type": "uint256"
        },
        {
          "internalType": "address[]",
          "name": "_validators",
          "type": "address[]"
        },
        {
          "internalType": "uint256[]",
          "name": "_powers",
          "type": "uint256[]"
        },
        {
          "internalType": "uint8[]",
          "name": "_v",
          "type": "uint8[]"
        },
        {
          "internalType": "bytes32[]",
          "name": "_r",
          "type": "bytes32[]"
        },
        {
          "internalType": "bytes32[]",
          "name": "_s",
          "type": "bytes32[]"
        }
      ],
      "stateMutability": "nonpayable",
      "type": "constructor"
    },
    {
      "anonymous": false,
      "inputs": [
        {
          "indexed": true,
          "internalType": "address",
          "name": "_erc20",
          "type": "address"
        },
        {
          "indexed": true,
          "internalType": "bytes32",
          "name": "_destination",
          "type": "bytes32"
        },
        {
          "indexed": false,
          "internalType": "uint256",
          "name": "_amount",
          "type": "uint256"
        }
      ],
      "name": "Deposit",
      "type": "event"
    },
    {
      "anonymous": false,
      "inputs": [
        {
          "indexed": false,
          "internalType": "address[]",
          "name": "_validators",
          "type": "address[]"
        },
        {
          "indexed": false,
          "internalType": "uint256[]",
          "name": "_powers",
          "type": "uint256[]"
        }
      ],
      "name": "ValsetUpdated",
      "type": "event"
    },
    {
      "anonymous": false,
      "inputs": [
        {
          "indexed": true,
          "internalType": "address",
          "name": "_erc20",
          "type": "address"
        },
        {
          "indexed": true,
          "internalType": "address",
          "name": "_destination",
          "type": "address"
        },
        {
          "indexed": false,
          "internalType": "uint256",
          "name": "_amount",
          "type": "uint256"
        }
      ],
      "name": "Withdraw",
      "type": "event"
    },
    {
      "inputs": [],
      "name": "CHECKPOINT_METHOD_NAME",
      "outputs": [
        {
          "internalType": "bytes32",
          "name": "",
          "type": "bytes32"
        }
      ],
      "stateMutability": "view",
      "type": "function"
    },
    {
      "inputs": [],
      "name": "WITHDRAW_METHOD_NAME",
      "outputs": [
        {
          "internalType": "bytes32",
          "name": "",
          "type": "bytes32"
        }
      ],
      "stateMutability": "view",
      "type": "function"
    },
    {
      "inputs": [],
      "name": "lastCheckpoint",
      "outputs": [
        {
          "internalType": "bytes32",
          "name": "",
          "type": "bytes32"
        }
      ],
      "stateMutability": "view",
      "type": "function"
    },
    {
      "inputs": [],
      "name": "peggyId",
      "outputs": [
        {
          "internalType": "bytes32",
          "name": "",
          "type": "bytes32"
        }
      ],
      "stateMutability": "view",
      "type": "function"
    },
    {
      "inputs": [],
      "name": "powerThreshold",
      "outputs": [
        {
          "internalType": "uint256",
          "name": "",
          "type": "uint256"
        }
      ],
      "stateMutability": "view",
      "type": "function"
    },
    {
      "inputs": [
        {
          "internalType": "address[]",
          "name": "_validators",
          "type": "address[]"
        },
        {
          "internalType": "uint256[]",
          "name": "_powers",
          "type": "uint256[]"
        },
        {
          "internalType": "uint256",
          "name": "_valsetNonce",
          "type": "uint256"
        },
        {
          "internalType": "bytes32",
          "name": "_peggyId",
          "type": "bytes32"
        }
      ],
      "name": "makeCheckpoint",
      "outputs": [
        {
          "internalType": "bytes32",
          "name": "",
          "type": "bytes32"
        }
      ],
      "stateMutability": "pure",
      "type": "function"
    },
    {
      "inputs": [
        {
          "internalType": "address[]",
          "name": "_currentValidators",
          "type": "address[]"
        },
        {
          "internalType": "uint256[]",
          "name": "_currentPowers",
          "type": "uint256[]"
        },
        {
          "internalType": "uint8[]",
          "name": "_v",
          "type": "uint8[]"
        },
        {
          "internalType": "bytes32[]",
          "name": "_r",
          "type": "bytes32[]"
        },
        {
          "internalType": "bytes32[]",
          "name": "_s",
          "type": "bytes32[]"
        },
        {
          "internalType": "bytes32",
          "name": "_theHash",
          "type": "bytes32"
        },
        {
          "internalType": "uint256",
          "name": "_powerThreshold",
          "type": "uint256"
        }
      ],
      "name": "checkValidatorSignatures",
      "outputs": [],
      "stateMutability": "pure",
      "type": "function"
    },
    {
      "inputs": [
        {
          "internalType": "address",
          "name": "_erc20",
          "type": "address"
        },
        {
          "internalType": "bytes32",
          "name": "_destination",
          "type": "bytes32"
        },
        {
          "internalType": "uint256",
          "name": "_amount",
          "type": "uint256"
        }
      ],
      "name": "deposit",
      "outputs": [],
      "stateMutability": "nonpayable",
      "type": "function"
    },
    {
      "inputs": [
        {
          "internalType": "address[]",
          "name": "_newValidators",
          "type": "address[]"
        },
        {
          "internalType": "uint256[]",
          "name": "_newPowers",
          "type": "uint256[]"
        },
        {
          "internalType": "uint256",
          "name": "_newValsetNonce",
          "type": "uint256"
        },
        {
          "internalType": "address[]",
          "name": "_validators",
          "type": "address[]"
        },
        {
          "internalType": "uint256[]",
          "name": "_powers",
          "type": "uint256[]"
        },
        {
          "internalType": "uint256",
          "name": "_valsetNonce",
          "type": "uint256"
        },
        {
          "internalType": "uint8[]",
          "name": "_v",
          "type": "uint8[]"
        },
        {
          "internalType": "bytes32[]",
          "name": "_r",
          "type": "bytes32[]"
        },
        {
          "internalType": "bytes32[]",
          "name": "_s",
          "type": "bytes32[]"
        }
      ],
      "name": "updateValset",
      "outputs": [],
      "stateMutability": "nonpayable",
      "type": "function"
    },
    {
      "inputs": [
        {
          "internalType": "bytes32",
          "name": "_id",
          "type": "bytes32"
        },
        {
          "internalType": "address",
          "name": "_erc20",
          "type": "address"
        },
        {
          "internalType": "address",
          "name": "_destination",
          "type": "address"
        },
        {
          "internalType": "uint256",
          "name": "_amount",
          "type": "uint256"
        },
        {
          "internalType": "address[]",
          "name": "_validators",
          "type": "address[]"
        },
        {
          "internalType": "uint256",
          "name": "_valsetNonce",
          "type": "uint256"
        },
        {
          "internalType": "uint256[]",
          "name": "_powers",
          "type": "uint256[]"
        },
        {
          "internalType": "uint8[]",
          "name": "_v",
          "type": "uint8[]"
        },
        {
          "internalType": "bytes32[]",
          "name": "_r",
          "type": "bytes32[]"
        },
        {
          "internalType": "bytes32[]",
          "name": "_s",
          "type": "bytes32[]"
        }
      ],
      "name": "withdraw",
      "outputs": [],
      "stateMutability": "nonpayable",
      "type": "function"
    }
  ],
  "bytecode": "0x60806040523480156200001157600080fd5b50604051620025c3380380620025c3833981810160405260e08110156200003757600080fd5b810190808051906020019092919080519060200190929190805160405193929190846401000000008211156200006c57600080fd5b838201915060208201858111156200008357600080fd5b8251866020820283011164010000000082111715620000a157600080fd5b8083526020830192505050908051906020019060200280838360005b83811015620000da578082015181840152602081019050620000bd565b50505050905001604052602001805160405193929190846401000000008211156200010457600080fd5b838201915060208201858111156200011b57600080fd5b82518660208202830111640100000000821117156200013957600080fd5b8083526020830192505050908051906020019060200280838360005b838110156200017257808201518184015260208101905062000155565b50505050905001604052602001805160405193929190846401000000008211156200019c57600080fd5b83820191506020820185811115620001b357600080fd5b8251866020820283011164010000000082111715620001d157600080fd5b8083526020830192505050908051906020019060200280838360005b838110156200020a578082015181840152602081019050620001ed565b50505050905001604052602001805160405193929190846401000000008211156200023457600080fd5b838201915060208201858111156200024b57600080fd5b82518660208202830111640100000000821117156200026957600080fd5b8083526020830192505050908051906020019060200280838360005b83811015620002a257808201518184015260208101905062000285565b5050505090500160405260200180516040519392919084640100000000821115620002cc57600080fd5b83820191506020820185811115620002e357600080fd5b82518660208202830111640100000000821117156200030157600080fd5b8083526020830192505050908051906020019060200280838360005b838110156200033a5780820151818401526020810190506200031d565b50505050905001604052505050835185511480156200035a575082518551145b801562000368575081518551145b801562000376575080518551145b620003cd576040517f08c379a00000000000000000000000000000000000000000000000000000000081526004018080602001828103825260268152602001806200259d6026913960400191505060405180910390fd5b60008090506000620003e88787848c6200045360201b60201c565b90506200042f8787878787868e6040516020018083815260200182815260200192505050604051602081830303815290604052805190602001208e6200056660201b60201c565b80600281905550886000819055508760018190555050505050505050505062000887565b6000808260405180807f636865636b706f696e7400000000000000000000000000000000000000000000815250600a0190506040518091039020858888604051602001808681526020018581526020018481526020018060200180602001838103835285818151815260200191508051906020019060200280838360005b83811015620004ee578082015181840152602081019050620004d1565b50505050905001838103825284818151815260200191508051906020019060200280838360005b838110156200053257808201518184015260208101905062000515565b5050505090500197505050505050505060405160208183030381529060405280519060200120905080915050949350505050565b600080905060008090505b8851811015620006a35760008782815181106200058a57fe5b602002602001015160ff1614620006805762000600898281518110620005ac57fe5b602002602001015185898481518110620005c257fe5b6020026020010151898581518110620005d757fe5b6020026020010151898681518110620005ec57fe5b60200260200101516200070860201b60201c565b62000657576040517f08c379a0000000000000000000000000000000000000000000000000000000008152600401808060200182810382526029815260200180620025326029913960400191505060405180910390fd5b8781815181106200066457fe5b602002602001015182019150828211156200067f57620006a3565b5b6200069b600182620007fe60201b620019201790919060201c565b905062000571565b50818111620006fe576040517f08c379a00000000000000000000000000000000000000000000000000000000081526004018080602001828103825260428152602001806200255b6042913960600191505060405180910390fd5b5050505050505050565b6000808560405160200180807f19457468657265756d205369676e6564204d6573736167653a0a333200000000815250601c0182815260200191505060405160208183030381529060405280519060200120905060018186868660405160008152602001604052604051808581526020018460ff1660ff1681526020018381526020018281526020019450505050506020604051602081039080840390855afa158015620007ba573d6000803e3d6000fd5b5050506020604051035173ffffffffffffffffffffffffffffffffffffffff168773ffffffffffffffffffffffffffffffffffffffff161491505095945050505050565b6000808284019050838110156200087d576040517f08c379a000000000000000000000000000000000000000000000000000000000815260040180806020018281038252601b8152602001807f536166654d6174683a206164646974696f6e206f766572666c6f77000000000081525060200191505060405180910390fd5b8091505092915050565b611c9b80620008976000396000f3fe608060405234801561001057600080fd5b506004361061009e5760003560e01c8063d32e81a511610066578063d32e81a5146105d8578063e3cb9f62146105f6578063e8bd2fa814610a3b578063ea10bb2014610a59578063eb2243f814610d755761009e565b80634eb6ce70146100a3578063556fd4ba146100c157806371cbf381146100df5780639fc7a04d14610253578063ba95ec27146105ba575b600080fd5b6100ab610dcd565b6040518082815260200191505060405180910390f35b6100c9610e06565b6040518082815260200191505060405180910390f35b61023d600480360360808110156100f557600080fd5b810190808035906020019064010000000081111561011257600080fd5b82018360208201111561012457600080fd5b8035906020019184602083028401116401000000008311171561014657600080fd5b919080806020026020016040519081016040528093929190818152602001838360200280828437600081840152601f19601f820116905080830192505050505050509192919290803590602001906401000000008111156101a657600080fd5b8201836020820111156101b857600080fd5b803590602001918460208302840111640100000000831117156101da57600080fd5b919080806020026020016040519081016040528093929190818152602001838360200280828437600081840152601f19601f8201169050808301925050505050505091929192908035906020019092919080359060200190929190505050610e0c565b6040518082815260200191505060405180910390f35b6105b8600480360361014081101561026a57600080fd5b8101908080359060200190929190803573ffffffffffffffffffffffffffffffffffffffff169060200190929190803573ffffffffffffffffffffffffffffffffffffffff16906020019092919080359060200190929190803590602001906401000000008111156102db57600080fd5b8201836020820111156102ed57600080fd5b8035906020019184602083028401116401000000008311171561030f57600080fd5b919080806020026020016040519081016040528093929190818152602001838360200280828437600081840152601f19601f820116905080830192505050505050509192919290803590602001909291908035906020019064010000000081111561037957600080fd5b82018360208201111561038b57600080fd5b803590602001918460208302840111640100000000831117156103ad57600080fd5b919080806020026020016040519081016040528093929190818152602001838360200280828437600081840152601f19601f8201169050808301925050505050505091929192908035906020019064010000000081111561040d57600080fd5b82018360208201111561041f57600080fd5b8035906020019184602083028401116401000000008311171561044157600080fd5b919080806020026020016040519081016040528093929190818152602001838360200280828437600081840152601f19601f820116905080830192505050505050509192919290803590602001906401000000008111156104a157600080fd5b8201836020820111156104b357600080fd5b803590602001918460208302840111640100000000831117156104d557600080fd5b919080806020026020016040519081016040528093929190818152602001838360200280828437600081840152601f19601f8201169050808301925050505050505091929192908035906020019064010000000081111561053557600080fd5b82018360208201111561054757600080fd5b8035906020019184602083028401116401000000008311171561056957600080fd5b919080806020026020016040519081016040528093929190818152602001838360200280828437600081840152601f19601f820116905080830192505050505050509192919290505050610f1b565b005b6105c261130a565b6040518082815260200191505060405180910390f35b6105e0611310565b6040518082815260200191505060405180910390f35b610a39600480360361012081101561060d57600080fd5b810190808035906020019064010000000081111561062a57600080fd5b82018360208201111561063c57600080fd5b8035906020019184602083028401116401000000008311171561065e57600080fd5b919080806020026020016040519081016040528093929190818152602001838360200280828437600081840152601f19601f820116905080830192505050505050509192919290803590602001906401000000008111156106be57600080fd5b8201836020820111156106d057600080fd5b803590602001918460208302840111640100000000831117156106f257600080fd5b919080806020026020016040519081016040528093929190818152602001838360200280828437600081840152601f19601f820116905080830192505050505050509192919290803590602001909291908035906020019064010000000081111561075c57600080fd5b82018360208201111561076e57600080fd5b8035906020019184602083028401116401000000008311171561079057600080fd5b919080806020026020016040519081016040528093929190818152602001838360200280828437600081840152601f19601f820116905080830192505050505050509192919290803590602001906401000000008111156107f057600080fd5b82018360208201111561080257600080fd5b8035906020019184602083028401116401000000008311171561082457600080fd5b919080806020026020016040519081016040528093929190818152602001838360200280828437600081840152601f19601f820116905080830192505050505050509192919290803590602001909291908035906020019064010000000081111561088e57600080fd5b8201836020820111156108a057600080fd5b803590602001918460208302840111640100000000831117156108c257600080fd5b919080806020026020016040519081016040528093929190818152602001838360200280828437600081840152601f19601f8201169050808301925050505050505091929192908035906020019064010000000081111561092257600080fd5b82018360208201111561093457600080fd5b8035906020019184602083028401116401000000008311171561095657600080fd5b919080806020026020016040519081016040528093929190818152602001838360200280828437600081840152601f19601f820116905080830192505050505050509192919290803590602001906401000000008111156109b657600080fd5b8201836020820111156109c857600080fd5b803590602001918460208302840111640100000000831117156109ea57600080fd5b919080806020026020016040519081016040528093929190818152602001838360200280828437600081840152601f19601f820116905080830192505050505050509192919290505050611316565b005b610a436115a7565b6040518082815260200191505060405180910390f35b610d73600480360360e0811015610a6f57600080fd5b8101908080359060200190640100000000811115610a8c57600080fd5b820183602082011115610a9e57600080fd5b80359060200191846020830284011164010000000083111715610ac057600080fd5b919080806020026020016040519081016040528093929190818152602001838360200280828437600081840152601f19601f82011690508083019250505050505050919291929080359060200190640100000000811115610b2057600080fd5b820183602082011115610b3257600080fd5b80359060200191846020830284011164010000000083111715610b5457600080fd5b919080806020026020016040519081016040528093929190818152602001838360200280828437600081840152601f19601f82011690508083019250505050505050919291929080359060200190640100000000811115610bb457600080fd5b820183602082011115610bc657600080fd5b80359060200191846020830284011164010000000083111715610be857600080fd5b919080806020026020016040519081016040528093929190818152602001838360200280828437600081840152601f19601f82011690508083019250505050505050919291929080359060200190640100000000811115610c4857600080fd5b820183602082011115610c5a57600080fd5b80359060200191846020830284011164010000000083111715610c7c57600080fd5b919080806020026020016040519081016040528093929190818152602001838360200280828437600081840152601f19601f82011690508083019250505050505050919291929080359060200190640100000000811115610cdc57600080fd5b820183602082011115610cee57600080fd5b80359060200191846020830284011164010000000083111715610d1057600080fd5b919080806020026020016040519081016040528093929190818152602001838360200280828437600081840152601f19601f82011690508083019250505050505050919291929080359060200190929190803590602001909291905050506115e0565b005b610dcb60048036036060811015610d8b57600080fd5b81019080803573ffffffffffffffffffffffffffffffffffffffff1690602001909291908035906020019092919080359060200190929190505050611764565b005b60405180807f77697468647261770000000000000000000000000000000000000000000000008152506008019050604051809103902081565b60005481565b6000808260405180807f636865636b706f696e7400000000000000000000000000000000000000000000815250600a0190506040518091039020858888604051602001808681526020018581526020018481526020018060200180602001838103835285818151815260200191508051906020019060200280838360005b83811015610ea5578082015181840152602081019050610e8a565b50505050905001838103825284818151815260200191508051906020019060200280838360005b83811015610ee7578082015181840152602081019050610ecc565b5050505090500197505050505050505060405160208183030381529060405280519060200120905080915050949350505050565b83518651148015610f2d575082518651145b8015610f3a575081518651145b8015610f47575080518651145b610f9c576040517f08c379a0000000000000000000000000000000000000000000000000000000008152600401808060200182810382526026815260200180611b2b6026913960400191505060405180910390fd5b600360008b815260200190815260200160002060009054906101000a900460ff1615611013576040517f08c379a0000000000000000000000000000000000000000000000000000000008152600401808060200182810382526027815260200180611c016027913960400191505060405180910390fd5b600254611024878688600054610e0c565b1461107a576040517f08c379a0000000000000000000000000000000000000000000000000000000008152600401808060200182810382526045815260200180611b516045913960600191505060405180910390fd5b6000805460405180807f7769746864726177000000000000000000000000000000000000000000000000815250600801905060405180910390208c8a8c604051602001808681526020018581526020018481526020018381526020018273ffffffffffffffffffffffffffffffffffffffff1673ffffffffffffffffffffffffffffffffffffffff168152602001955050505050506040516020818303038152906040528051906020012090506111388786868686866001546115e0565b8973ffffffffffffffffffffffffffffffffffffffff1663a9059cbb8a8a6040518363ffffffff1660e01b8152600401808373ffffffffffffffffffffffffffffffffffffffff1673ffffffffffffffffffffffffffffffffffffffff16815260200182815260200192505050602060405180830381600087803b1580156111bf57600080fd5b505af11580156111d3573d6000803e3d6000fd5b505050506040513d60208110156111e957600080fd5b810190808051906020019092919050505061126c576040517f08c379a000000000000000000000000000000000000000000000000000000000815260040180806020018281038252601c8152602001807f50656767793a204552433230207472616e73666572206661696c65640000000081525060200191505060405180910390fd5b6001600360008d815260200190815260200160002060006101000a81548160ff0219169083151502179055508873ffffffffffffffffffffffffffffffffffffffff168a73ffffffffffffffffffffffffffffffffffffffff167f9b1bfa7fa9ee420a16e124f794c35ac9f90472acc99140eb2f6447c714cad8eb8a6040518082815260200191505060405180910390a35050505050505050505050565b60015481565b60025481565b8751895114611370576040517f08c379a0000000000000000000000000000000000000000000000000000000008152600401808060200182810382526022815260200180611a9e6022913960400191505060405180910390fd5b84518651148015611382575082518651145b801561138f575081518651145b801561139c575080518651145b6113f1576040517f08c379a0000000000000000000000000000000000000000000000000000000008152600401808060200182810382526026815260200180611b966026913960400191505060405180910390fd5b600254611402878787600054610e0c565b14611458576040517f08c379a0000000000000000000000000000000000000000000000000000000008152600401808060200182810382526045815260200180611bbc6045913960600191505060405180910390fd5b8387116114b0576040517f08c379a000000000000000000000000000000000000000000000000000000000815260040180806020018281038252603e815260200180611c28603e913960400191505060405180910390fd5b60006114c08a8a8a600054610e0c565b90506114d38787868686866001546115e0565b806002819055507fb5d3495c2ecf4bc11dddbce9db1ad472d113b0f45a011e258841619891b69aa28a8a604051808060200180602001838103835285818151815260200191508051906020019060200280838360005b83811015611544578082015181840152602081019050611529565b50505050905001838103825284818151815260200191508051906020019060200280838360005b8381101561158657808201518184015260208101905061156b565b5050505090500194505050505060405180910390a150505050505050505050565b60405180807f636865636b706f696e7400000000000000000000000000000000000000000000815250600a019050604051809103902081565b600080905060008090505b885181101561170157600087828151811061160257fe5b602002602001015160ff16146116e65761166b89828151811061162157fe5b60200260200101518589848151811061163657fe5b602002602001015189858151811061164a57fe5b602002602001015189868151811061165e57fe5b60200260200101516119a8565b6116c0576040517f08c379a0000000000000000000000000000000000000000000000000000000008152600401808060200182810382526029815260200180611ac06029913960400191505060405180910390fd5b8781815181106116cc57fe5b602002602001015182019150828211156116e557611701565b5b6116fa60018261192090919063ffffffff16565b90506115eb565b5081811161175a576040517f08c379a0000000000000000000000000000000000000000000000000000000008152600401808060200182810382526042815260200180611ae96042913960600191505060405180910390fd5b5050505050505050565b8273ffffffffffffffffffffffffffffffffffffffff166323b872dd3330846040518463ffffffff1660e01b8152600401808473ffffffffffffffffffffffffffffffffffffffff1673ffffffffffffffffffffffffffffffffffffffff1681526020018373ffffffffffffffffffffffffffffffffffffffff1673ffffffffffffffffffffffffffffffffffffffff1681526020018281526020019350505050602060405180830381600087803b15801561181f57600080fd5b505af1158015611833573d6000803e3d6000fd5b505050506040513d602081101561184957600080fd5b81019080805190602001909291905050506118cc576040517f08c379a000000000000000000000000000000000000000000000000000000000815260040180806020018281038252601c8152602001807f50656767793a204552433230207472616e73666572206661696c65640000000081525060200191505060405180910390fd5b818373ffffffffffffffffffffffffffffffffffffffff167f19dacbf83c5de6658e14cbf7bcae5c15eca2eedecf1c66fbca928e4d351bea0f836040518082815260200191505060405180910390a3505050565b60008082840190508381101561199e576040517f08c379a000000000000000000000000000000000000000000000000000000000815260040180806020018281038252601b8152602001807f536166654d6174683a206164646974696f6e206f766572666c6f77000000000081525060200191505060405180910390fd5b8091505092915050565b6000808560405160200180807f19457468657265756d205369676e6564204d6573736167653a0a333200000000815250601c0182815260200191505060405160208183030381529060405280519060200120905060018186868660405160008152602001604052604051808581526020018460ff1660ff1681526020018381526020018281526020019450505050506020604051602081039080840390855afa158015611a59573d6000803e3d6000fd5b5050506020604051035173ffffffffffffffffffffffffffffffffffffffff168773ffffffffffffffffffffffffffffffffffffffff16149150509594505050505056fe50656767793a204d616c666f726d6564206e65772076616c696461746f722073657450656767793a2076616c696461746f72207369676e617475726520646f6573206e6f74206d6174636850656767793a207375626d69747465642076616c696461746f7220736574207369676e61747572657320646f206e6f74206861766520656e6f75676820706f77657250656767793a206d616c666f726d65642063757272656e742076616c696461746f722073657450656767793a20737570706c6965642063757272656e742076616c696461746f727320616e6420706f7765727320646f206e6f74206d6174636820636865636b706f696e7450656767793a204d616c666f726d65642063757272656e742076616c696461746f722073657450656767793a20537570706c6965642063757272656e742076616c696461746f727320616e6420706f7765727320646f206e6f74206d6174636820636865636b706f696e7450656767793a207472616e73616374696f6e20696420616c72656164792070726f63657373656450656767793a204e65772076616c736574206e6f6e6365206d7573742062652067726561746572207468616e207468652063757272656e74206e6f6e6365a2646970667358221220428292baed658fe944df8b746bdaebfa397ab949b5d71e253150f890b795a11364736f6c634300060b003350656767793a2076616c696461746f72207369676e617475726520646f6573206e6f74206d6174636850656767793a207375626d69747465642076616c696461746f7220736574207369676e61747572657320646f206e6f74206861766520656e6f75676820706f77657250656767793a206d616c666f726d65642063757272656e742076616c696461746f7220736574",
  "immutableReferences": {},
  "source": "// SPDX-License-Identifier: MIT\n\npragma solidity ^0.6.6;\n\nimport '@openzeppelin/contracts/math/SafeMath.sol';\nimport '@openzeppelin/contracts/token/ERC20/IERC20.sol';\n\n/*\n    TODO list:\n    - QUESTION let's remove powerThreshold? and use totalPower / 2 + 1?\n*/\ncontract Peggy {\n    using SafeMath for uint256;\n\n    // Deposit event.\n    event ValsetUpdated(address[] _validators, uint256[] _powers);\n    event Deposit(address indexed _erc20, bytes32 indexed _destination, uint256 _amount);\n    event Withdraw(address indexed _erc20, address indexed _destination, uint256 _amount);\n\n    // Current PegZone ID.\n    bytes32 public peggyId;\n\n    // Amount of power to confirm operation.\n    uint256 public powerThreshold;\n\n    // Last checkpoint.\n    bytes32 public lastCheckpoint;\n\n    // Checkpoint method name hash (\"checkpoint\").\n    bytes32 constant public CHECKPOINT_METHOD_NAME = keccak256(\"checkpoint\");\n\n    // Withdraw method name hash (\"withdraw\").\n    bytes32 constant public WITHDRAW_METHOD_NAME = keccak256(\"withdraw\");\n\n    // List of processed withdraws.\n    mapping(bytes32 => bool) withdrawIds;\n\n    //\n    // Signature utils functions.\n    //\n\n    // Utility function to verify geth style signatures\n    function verifySig(\n        address _signer,\n        bytes32 _theHash,\n        uint8 _v,\n        bytes32 _r,\n        bytes32 _s\n    ) private pure returns (bool) {\n        bytes32 messageDigest = keccak256(\n            abi.encodePacked(\"\\x19Ethereum Signed Message:\\n32\", _theHash)\n        );\n        return _signer == ecrecover(messageDigest, _v, _r, _s);\n    }\n\n    // Validators checkpoint.\n    function makeCheckpoint(\n        address[] memory _validators,\n        uint256[] memory _powers,\n        uint256 _valsetNonce,\n        bytes32 _peggyId\n    ) public pure returns (bytes32) {\n        bytes32 checkpoint = keccak256(\n            abi.encode(_peggyId, CHECKPOINT_METHOD_NAME, _valsetNonce, _validators, _powers)\n        );\n\n        return checkpoint;\n    }\n\n    // Check validator signatures.\n    function checkValidatorSignatures(\n        // The current validator set and their powers\n        address[] memory _currentValidators,\n        uint256[] memory _currentPowers,\n        // The current validator's signatures\n        uint8[] memory _v,\n        bytes32[] memory _r,\n        bytes32[] memory _s,\n        // This is what we are checking they have signed\n        bytes32 _theHash,\n        uint256 _powerThreshold\n    ) public pure {\n        uint256 cumulativePower = 0;\n\n        for (uint256 k = 0; k < _currentValidators.length; k = k.add(1)) {\n            // If v is set to 0, this signifies that it was not possible to get a signature from this validator and we skip evaluation\n            // (In a valid signature, it is either 27 or 28)\n            if (_v[k] != 0) {\n                // Check that the current validator has signed off on the hash\n                require(\n                    verifySig(_currentValidators[k], _theHash, _v[k], _r[k], _s[k]),\n                    'Peggy: validator signature does not match'\n                );\n\n                // Sum up cumulative power\n                cumulativePower = cumulativePower + _currentPowers[k];\n\n                // Break early to avoid wasting gas\n                if (cumulativePower > _powerThreshold) {\n                    break;\n                }\n            }\n        }\n\n        // Check that there was enough power\n        require(\n            cumulativePower > _powerThreshold,\n            'Peggy: submitted validator set signatures do not have enough power'\n        );\n    }\n\n    // !!!IMPORTANT!!!: Only whitelisted ERC20 will be move to dfinance network.\n    // Deposit ERC20 into Peggy.\n    // Whitelist is stored on dfinance part.\n    // Validators use transaction id as unique id for processing deposit.\n    function deposit(address _erc20, bytes32 _destination, uint256 _amount) public {\n        require(IERC20(_erc20).transferFrom(msg.sender, address(this), _amount), 'Peggy: ERC20 transfer failed');\n        emit Deposit(_erc20, _destination, _amount);\n    }\n\n    // This updates the valset by checking that the validators in the current valset have signed off on the\n    // new valset. The signatures supplied are the signatures of the current valset over the checkpoint hash\n    // generated from the new valset.\n    function updateValset(\n        // The new version of the validator set\n        address[] memory _newValidators,\n        uint256[] memory _newPowers,\n        uint256 _newValsetNonce,\n        // The current validators that approve the change\n        address[] memory _validators,\n        uint256[] memory _powers,\n        uint256 _valsetNonce,\n        // These are arrays of the parts of the current validator's signatures\n        uint8[] memory _v,\n        bytes32[] memory _r,\n        bytes32[] memory _s\n    ) public {\n        // CHECKS\n\n        // Check that new validators and powers set is well-formed\n        require(_newValidators.length == _newPowers.length, 'Peggy: Malformed new validator set');\n\n        // Check that current validators, powers, and signatures (v,r,s) set is well-formed\n        require(\n            _validators.length == _powers.length &&\n            _validators.length == _v.length &&\n            _validators.length == _r.length &&\n            _validators.length == _s.length,\n            'Peggy: Malformed current validator set'\n        );\n\n        // Check that the supplied current validator set matches the saved checkpoint\n        require(\n            makeCheckpoint(\n            _validators,\n            _powers,\n            _valsetNonce,\n            peggyId\n            ) == lastCheckpoint,\n            'Peggy: Supplied current validators and powers do not match checkpoint'\n        );\n\n        // Check that the valset nonce is greater than the old one\n        require(\n            _newValsetNonce > _valsetNonce,\n            'Peggy: New valset nonce must be greater than the current nonce'\n        );\n\n        // Check that enough current validators have signed off on the new validator set\n        bytes32 newCheckpoint = makeCheckpoint(\n            _newValidators,\n            _newPowers,\n            _newValsetNonce,\n            peggyId\n        );\n\n        checkValidatorSignatures(\n            _validators,\n            _powers,\n            _v,\n            _r,\n            _s,\n            newCheckpoint,\n            powerThreshold\n        );\n\n        /* TODO: check that new powers enough to approve anything. */\n\n        // Stored to be used next time to validate that the valset\n        // supplied by the caller is correct.\n        lastCheckpoint = newCheckpoint;\n\n        emit ValsetUpdated(_newValidators, _newPowers);\n    }\n\n    // Withdraw function.\n    // Accepting id, erc20 address, destination.\n    // Also requires validators, powers.\n    // Anyone can submit.\n    function withdraw(bytes32 _id, address _erc20, address _destination, uint256 _amount, address[] memory _validators, uint256 _valsetNonce, uint256[] memory _powers, uint8[] memory _v, bytes32[] memory _r, bytes32[] memory _s) public {\n        require(\n            _validators.length == _powers.length &&\n            _validators.length == _v.length &&\n            _validators.length == _r.length &&\n            _validators.length == _s.length,\n            'Peggy: malformed current validator set'\n        );\n\n        require(!withdrawIds[_id], 'Peggy: transaction id already processed');\n\n        // Check that the supplied current validator set matches the saved checkpoint.\n        require(\n            makeCheckpoint(\n            _validators,\n            _powers,\n            _valsetNonce,\n            peggyId\n            ) == lastCheckpoint,\n            'Peggy: supplied current validators and powers do not match checkpoint'\n        );\n\n        // Get hash of the transaction.\n        bytes32 confirmationHash = keccak256(\n            abi.encode(peggyId, WITHDRAW_METHOD_NAME, _id, _amount, _destination)\n        );\n\n        // Check that enough current validators have signed off on the transaction batch\n        checkValidatorSignatures(\n            _validators,\n            _powers,\n            _v,\n            _r,\n            _s,\n            confirmationHash,\n            powerThreshold\n        );\n\n        require(IERC20(_erc20).transfer(_destination, _amount), 'Peggy: ERC20 transfer failed');\n\n        withdrawIds[_id] = true;\n\n        emit Withdraw(_erc20, _destination, _amount);\n    }\n\n    // Smart contract constructor.\n    constructor(bytes32 _peggyId, uint256 _powerThreshold, address[] memory _validators, uint256[] memory _powers, uint8[] memory _v, bytes32[] memory _r, bytes32[] memory _s) public {\n        require(\n            _validators.length == _powers.length &&\n            _validators.length == _v.length &&\n            _validators.length == _r.length &&\n            _validators.length == _s.length,\n            'Peggy: malformed current validator set'\n        );\n\n        uint256 nonce = 0;\n        bytes32 newCheckpoint = makeCheckpoint(_validators, _powers, nonce, _peggyId);\n\n        checkValidatorSignatures(\n            _validators,\n            _powers,\n            _v,\n            _r,\n            _s,\n            keccak256(abi.encode(newCheckpoint, _powerThreshold)),\n            _powerThreshold\n        );\n\n        lastCheckpoint = newCheckpoint;\n        peggyId = _peggyId;\n        powerThreshold = _powerThreshold;\n    }\n}\n",
  "sourcePath": "/Users/romanfrolov/Desktop/All/Contracts/Dfinance/peggy/contracts/Peggy.sol",
  "compiler": {
    "name": "solc",
    "version": "0.6.11+commit.5ef660b1.Emscripten.clang"
  },
  "schemaVersion": "3.2.1",
  "updatedAt": "2020-10-05T18:24:56.815Z",
  "devdoc": {
    "kind": "dev",
    "methods": {},
    "version": 1
  },
  "userdoc": {
    "kind": "user",
    "methods": {},
    "version": 1
  }
}